:10000000B06D0020355D00005F050200215D00003D
:10001000215D0000215D0000215D0000215D0000E8
:10002000000000000000000000000000A15E0000D1
:10003000215D000000000000395E0000215D00002D
:100040006D6000006D6000006D6000006D6000007C
:100050006D6000006D6000006D6000006D6000006C
:100060006D6000006D6000006D6000006D6000005C
:100070006D6000006D6000006D6000006D6000004C
:100080006D6000006D6000006D6000006D6000003C
:100090006D6000006D6000006D6000006D6000002C
:1000A0006D6000006D6000006D6000006D6000001C
:1000B0006D6000006D6000006D6000006D6000000C
:1000C0006D6000006D6000006D6000006D600000FC
:1000D0006D6000006D6000006D6000006D600000EC
:1000E0006D6000006D6000006D6000006D600000DC
:1000F0006D6000006D6000006D6000006D600000CC
:100100006D6000006D6000006D6000006D600000BB
:100110006D6000006D6000006D6000006D600000AB
:100120006D6000006D6000006D6000006D6000009B
:100130006D6000006D6000006D6000006D6000008B
:100140006D6000006D6000006D6000006D6000007B
:040150006D600000DE
:1001580080EA101404F0F01480EA0410604081EA88
:10016800111404F0F01481EA0411614082EA1214B7
:1001780004F0F01482EA0412624083EA131404F0D3
:10018800F01483EA0413634080EA102404F47F44E3
:1001980080EA0420604081EA112404F47F4481EA63
:1001A8000421614082EA122404F47F4482EA042292
:1001B800624083EA132404F47F4483EA04236340FF
:1001C80081EA500404F0553480EA4400614083EA2F
:1001D800520404F0553482EA4402634082EA9004EF
:1001E80004F0333480EA8400624083EA910404F026
:1001F800333481EA84016340704700BF82EA900487
:1002080004F0333480EA8400624083EA910404F005
:10021800333481EA8401634081EA500404F05534A0
:1002280080EA4400614083EA520404F0553482EACB
:100238004402634080EA102404F47F4480EA0420E6
:10024800604081EA112404F47F4481EA042161407A
:1002580082EA122404F47F4482EA0422624083EA98
:10026800132404F47F4483EA0423634080EA1014CF
:1002780004F0F01480EA0410604081EA111404F0DC
:10028800F01481EA0411614082EA121404F0F014B7
:1002980082EA0412624083EA131404F0F01483EA39
:1002A80004136340704700BF2DE9F14F94464FEAAD
:1002B800930B8A68CB6808684968FFF749FF0BF118
:1002C800060E33E083EA134480EA134582EA1347B3
:1002D80046BA96EA3444604000F00F1684EA0634C1
:1002E80020F00F1684EA161054BA94EA01067240F8
:1002F80002F00F1486EA043622F00F1486EA14126C
:100308004CBA6540694001F00F1485EA043521F0C4
:100318000F1485EA14115CBA67407B4003F00F1490
:1003280087EA043723F00F1487EA1413BCE8F000B7
:100338006040694072407B4000F0E03400F01035C6
:1003480000F00F3040EA540040EAC50080EA90040B
:1003580004F0332480EA8400604001F0E03401F0C6
:10036800103501F00F3141EA540141EAC50181EA33
:10037800910404F0332481EA8401614002F0E034FE
:1003880002F0103502F00F3242EA540242EAC50286
:1003980082EA920404F0332482EA8402624003F081
:1003A800E03403F0103503F00F3343EA540343EA13
:1003B800C50383EA930404F0332483EA8403634087
:1003C80081EA324787EA134581EA354690EA06040E
:1003D80084EA034B82EA1B4280EA044484EA054427
:1003E80083EA144A85EA14448BEA044B84EA3744C6
:1003F80081EA0B4181EA164104EA0A00454082EA93
:1004080004082BEA080041408AEA0B0602EA0600C3
:1004180084EA34438AEA3A4603EA060778404540C4
:10042800414088EA38478BEA3B4007EA000985EAF9
:10043800090583EA0709464006EA0906714085EA84
:10044800010005EA3546464006EA314181EA304175
:1004580081EA364606EA304686EA3546344008EAF6
:10046800010886EA01052A4086EA364003405A40D8
:1004780081EA31431F407C4080EA030709EA070903
:1004880088EA0908544088EA020806EA0A0601EAE6
:100498000B018AEA0B0215408AEA3A4210404540AD
:1004A8008BEA3B4003405E404240174079404D4054
:1004B8004E40E443F64386EA18435D4085EA05402A
:1004C80083EA134386EA034183EA384284EA114304
:1004D80083EA04435FEA3343BEF1010E3FF6F2AE0E
:1004E8001ED4BCE8F0006040694072407B4020BCEC
:1004F800FFF784FE28606960AA60EB60BDE8F08FB2
:100508002DE9E0414FF2F00280EA1031114080EA13
:100518000130484041088208C3084FF0000E4FE7F9
:1005280000F0113001F0113102F0113203F01133F3
:1005380040EA410040EA820040EAC3004FF2F0027C
:1005480080EA1031114080EA01304840BDE8E0817E
:100558002DE9F04F02F11C050646074600EB850819
:1005680051F8040B043A46F8040BF9D14FF0010C8A
:10057800FFF7C6FF5FEA302080EA0C001ECF41403B
:100588004A4053405C401EC62000464517D04FEAFB
:100598004C0C1CF4807F18BFACF1E50C2C2DE7D077
:1005A8003C2D06D1FFF7ACFF06CF41404A4006C6B6
:1005B800100006CF41404A4006C61000D8E736E989
:1005C8000F00FFF7C5FD043D86E80F00F7D1BDE831
:1005D800F08F00BF2DE9F14F03F11C0402EB840CEE
:1005E8004FEA930B8A68CB6808684968FFF7B0FD43
:1005F8003CE9F0006040694072407B400BF1060E18
:100608004EE083EA134480EA134582EA134746BA68
:1006180096EA3444604000F00F1684EA063420F06D
:100628000F1684EA161054BA94EA0106724002F0D2
:100638000F1486EA043622F00F1486EA14124CBA14
:100648006540694001F00F1485EA043521F00F1464
:1006580085EA14115CBA67407B4003F00F1487EAFF
:10066800043723F00F1487EA141344BA44404DBAF0
:100678004D4056BA56405FBA5F4087EA174886EA47
:10068800174B84EA17464FEA38488BEA1B4485EA39
:100698001B4788EA1B4580EA3440694072407B402A
:1006A80000F0703400F0803500F00F3040EA44006C
:1006B80040EAD50080EA900404F0332480EA8400FC
:1006C800604001F0703401F0803501F00F3141EAEB
:1006D800440141EAD50181EA910404F0332481EA16
:1006E8008401614002F0703402F0803502F00F326C
:1006F80042EA440242EAD50282EA920404F0332430
:1007080082EA8402624003F0703403F0803503F01B
:100718000F3343EA440343EAD50383EA930404F01E
:10072800332483EA84036340C943DB4381EA00043A
:1007380083EA044686EA020183EA014382EA3345F2
:1007480083EA14435C4084EA00077FEA040A8AEAE1
:10075800024A8AEA010B87EA11488AEA374A80EA9C
:10076800060181EA1A418AEA030A04EA0A004540B6
:1007780088EA040707EA0B0041408AEA0B0608EA00
:10078800060084EA34428AEA3A4602EA06035840F6
:100798004540414087EA37438BEA3B4003EA00097A
:1007A80085EA090582EA0309464006EA0906714016
:1007B80085EA010005EA3546464006EA314181EA04
:1007C800304181EA364606EA304686EA3546344004
:1007D8000F4086EA010508EA050886EA3640024025
:1007E80088EA020881EA314213405C4080EA020349
:1007F80009EA030987EA0907674088EA040806EA5C
:100808000A0601EA0B018AEA0B0425408AEA3A44FF
:10081800204045408BEA3B4B02EA0B02564084EAF3
:100828000B04234059406E40694087EA364080EA0D
:10083800384080EA060380EA104481EA134585EAD5
:10084800344585EA17427D4082EA354180EA054011
:100858003CE9F0006040694072407B40BEF1010E07
:100868003FF6CFAE20BCFFF7C9FC28606960AA60DC
:10087800EB60BDE8F08F00BFFFF76ABE2DE9F00717
:1008880091E8F807B2E802105B1854EB0C04B2E8E0
:1008980002104D4156EB0C06B2E802104F4158EBDE
:1008A8000C08B2E8021059EB01095AEB0C0A80E86F
:1008B800F80780410130BDE8F00770472DE9F007DF
:1008C80091E8F807B2E802105B1A74EB0C04B2E87E
:1008D80002108D4176EB0C06B2E802108F4178EBDE
:1008E8000C08B2E8021079EB01097AEB0C0A80E8EF
:1008F800F80780414042BDE8F00770472DE9F0074E
:10090800524290E87800B1E880071740DB1918EAEE
:10091800020854EB080419EA020955EB09051AEA1A
:10092800020A56EB0A0678C090E87800B1E880071A
:1009380017407B4118EA020854EB080419EA020937
:1009480055EB09051AEA020A56EB0A0678C08041F7
:100958000130BDE8F00770472DE9F007524290E8F2
:100968007800B1E880071740DB1B18EA020874EB2F
:10097800080419EA020975EB09051AEA020A76EB76
:100988000A0678C090E87800B1E880071740BB41B4
:1009980018EA020874EB080419EA020975EB09055C
:1009A8001AEA020A76EB0A0678C080414042BDE89E
:1009B800F00770472DE9F00152424FF0040890E823
:1009C800300091E8C000A31B1340E41AF618EB1B93
:1009D8001340ED1AFF1830C0C0C1B8F10108EED1BC
:1009E800BDE8F001704700BF00B592E8DC072DE9CB
:1009F800DC07B1E8805702B4A7FB02510A95A8FBAF
:100A0800020BE7FB6310E9FB62B00B91A8FB0351F3
:100A1800EAFB6201E7FB64B5E7FB6605E8FB6615E0
:100A2800CDF830B0A9FB03B6EAFB6316ECFB6356BE
:100A3800E8FB640BE9FB641BEAFB645BECFB646B9F
:100A48000D90ACFB0230059CEEFB6250E9FB646044
:100A5800EAFB64B0E7FB6431E8FB6451069CE8FB01
:100A68006461E9FB64B1EAFB64010E93A7FB0432FD
:100A7800079CE7FB6462E8FB64B2E9FB6402EAFBFB
:100A88006412049CE9FB6453EAFB6463089CE7FB7B
:100A980064B3E8FB6403E9FB6413EAFB64230F9582
:100AA8005DF8049B99E80006DDF80080A9FB08546E
:100AB800EAFB68B4DDF81080ECFB6804EEFB681410
:100AC800E9FB6824EAFB6834DDF80480EEFB68651E
:100AD800E9FB68B5EAFB6805DDF81480ECFB6815EE
:100AE800EEFB6825E9FB6835EAFB68450F96DDF8FB
:100AF8000880AEFB0876E9FB6806EAFB6816DDF8B5
:100B08001880ECFB6826EEFB6836E9FB6846EAFBD2
:100B18006856DDF80C80ECFB68B7EEFB6807E9FB6C
:100B28006817EAFB6827DDF81C80ECFB6837EEFBEA
:100B38006847E9FB6857EAFB686708B000BD00BF73
:100B48002DE9F14F87B0FFF74FFFDDF81C8008F162
:100B5800200888E8FF00FFBC87E87F08BDE8F08F21
:100B680000B591E89857A3FB03520195A3FB040134
:100B7800E3FB6420E3FB67100292A3FB0752E3FB4D
:100B88006802E4FB6415E3FB6805E3FB6925039150
:100B9800A4FB07B6E3FB6926E3FB6A56E4FB670B95
:100BA800E4FB682BE3FB6A5BE3FB6C6B0490A4FB40
:100BB8000810E4FB6950E3FB6C60E3FB6EB0E7FBF5
:100BC8006721E4FB6951E4FB6A61E3FB6EB1E4FB76
:100BD8006E010592A7FB0832E4FB6A62E4FB6CB283
:100BE800E4FB6E02E7FB6E12E7FB6853E7FB696301
:100BF800E4FB6CB3E7FB6C03E7FB6E13E8FB6E23C7
:100C08000695A7FB0954E7FB6AB4E7FB6C04E8FB0D
:100C18006C14E8FB6E24E9FB6E34E8FB6865E7FBBF
:100C28006AB5E8FB6A05E8FB6C15E9FB6C25E9FB8E
:100C38006E35EAFB6E450796A8FB0976E8FB6A065F
:100C4800E9FB6A16E9FB6C26EAFB6C36EAFB6E46A2
:100C5800ECFB6E56E8FB69B7E9FB6907E9FB6A1725
:100C6800EAFB6A27EAFB6C37ECFB6C47ECFB6E5738
:100C7800EEFB6E6700BD00BF2DE9F14F87B0FFF7AF
:100C88006FFFDDF81C8008F1200888E8FF00FFBC32
:100C980087E87F08BDE8F08F30B44FF0000310F804
:100CA800014B11F8015B013A84EA050443EA0403A5
:100CB800F5D1A3F101034FEAD37030BC704700BFF0
:100CC8004FF0000310F8012B013943EA0203F9D170
:100CD800A3F101034FEAD370704700BF30B411F895
:100CE800014B12F8015B6C4000F8014B013BF6D157
:100CF80030BC70472DE9F04F90E8F00F00F140004C
:100D08004FF0040E59E0F0B4826BC36B04680525FC
:100D1800242687593C444FEA724787EAF24787EA14
:100D280092273C4442684FEAF21787EAB24787EABB
:100D3800D2073C4440F8044B032D08BF6FF01B0654
:100D480087593A444FEA734787EAF34787EA932774
:100D58003A4443684FEAF31787EAB34787EAD30769
:100D68003A4440F8042B87593B444FEA744787EAD2
:100D7800F44787EA94273B4444684FEAF41787EA24
:100D8800B44787EAD4073B4440F8043B013DC0D14F
:100D9800A0F13C00076A3C444FEA724787EAF247F1
:100DA80087EA92273C4402684FEAF21787EAB2477B
:100DB80087EAD2073C44C463F0BC4FF0020288EAD9
:100DC800781C8CEAF84C0BEBBC1C8AEA090303EA92
:100DD800080383EA0A039C4450F8043B9C4451F8F6
:100DE800043B9C44674444EA050B0BEA060B04EAFF
:100DF80005034BEA030BE34484EAF42383EA345300
:100E08000BEBB30B87EA771C8CEAF74C0AEBBC1C9C
:100E180089EA080303EA070383EA09039C4450F8B4
:100E2800043B9C4451F8043B9C4466444BEA040A46
:100E38000AEA050A0BEA04034AEA030AE2448BEACF
:100E4800FB2383EA3B530AEBB30A86EA761C8CEA57
:100E5800F64C09EBBC1C88EA070303EA060383EA9D
:100E680008039C4450F8043B9C4451F8043B9C44C0
:100E780065444AEA0B0909EA04090AEA0B0349EA44
:100E88000309E1448AEAFA2383EA3A5309EBB309EE
:100E980085EA751C8CEAF54C08EBBC1C87EA06034E
:100EA80003EA050383EA07039C4450F8043B9C4487
:100EB80051F8043B9C44644449EA0A0808EA0B08D0
:100EC80009EA0A0348EA0308E04489EAF92383EABD
:100ED800395308EBB30884EA741C8CEAF44C07EB2A
:100EE800BC1C86EA050303EA040383EA06039C4460
:100EF80050F8043B9C4451F8043B9C44E34448EAC2
:100F0800090707EA0A0708EA090347EA03076744E3
:100F180088EAF82383EA385307EBB3078BEA7B1C8C
:100F28008CEAFB4C06EBBC1C85EA040303EA0B03C2
:100F380083EA05039C4450F8043B9C4451F8043B65
:100F48009C44E24447EA080606EA090607EA080359
:100F580046EA0306664487EAF72383EA375306EB33
:100F6800B3068AEA7A1C8CEAFA4C05EBBC1C84EAC4
:100F78000B0303EA0A0383EA04039C4450F8043B86
:100F88009C4451F8043B9C44E14446EA070505EAC1
:100F9800080506EA070345EA0305654486EAF623D9
:100FA80083EA365305EBB30589EA791C8CEAF94CD8
:100FB80004EBBC1C8BEA0A0303EA090383EA0B036C
:100FC8009C4450F8043B9C4451F8043B9C44E04446
:100FD80045EA060404EA070405EA060344EA0304AA
:100FE800644485EAF52383EA355304EBB304013AF4
:100FF8007FF4E5AEA0F14000BEF1010E7FF483AEB0
:10100800A0F1400C9CE80F00001949199219DB194E
:10101800ACE80F009CE80F004044494452445B444C
:10102800ACE80F00BDE8F08F2DE9F00791E8F8076C
:10103800B2E802105B1854EB0C04B2E802104D4100
:1010480056EB0C06B2E802104F4158EB0C08B2E818
:10105800021059EB01095AEB0C0A8941B3F1FF332D
:1010680074F1FF3475F1FF3576F1000677F100076A
:1010780078F1000879F101097AF1FF3A51F100019C
:101088005B184C414D4156F1000657F1000758F1E5
:10109800000859EBD1795AEB010A80E8F807BDE856
:1010A800F00770472DE9F00791E8F807B2E8021059
:1010B8005B1A74EB0C04B2E802108D4176EB0C0657
:1010C800B2E802108F4178EB0C08B2E8021079EB15
:1010D80001097AEB0C0A89415B184C414D4156F1E4
:1010E800000657F1000758F1000859EBD1795AEB7F
:1010F800010A80E8F807BDE8F007704718EB040814
:1011080059EB05095AEB060A5BEB070B5FF0000C7D
:101118004CF1000C18EB050859EB06095AEB070AC5
:101128005BEB070B50EB0C005FF0000C51EB0C0174
:1011380052EB0C0263414CF1000CB8EB070879F153
:1011480000097AF1000A7BEB040BA841B141A241E6
:10115800B3416CF1000CBBEB050BB041B941AA419E
:10116800BB416CF1000C4CF001068CF0020718EB47
:10117800060859EB6C095AEB6C0A7BEB6C0B70EBAD
:101188006C0471EB6C0572EB670653EB6C076CEB48
:101198006C0C18EB0C0059EB0C015AEB0C025BF1D0
:1011A800000354F1000455F1000556EBDC7657EBCB
:1011B8000C0770472DE9F14F87B0FFF715FCDDF8F4
:1011C8001080DDF81490DDF818A0FFF797FFBDE850
:1011D800000FFFF793FF03B05DF8048B88E8FF006A
:1011E800BDE8F08F2DE9F14F87B0FFF7B9FCDDF8C6
:1011F8001080DDF81490DDF818A0FFF77FFFBDE838
:10120800000FFFF77BFF03B05DF8048B88E8FF0051
:10121800BDE8F08F53B94AB9002908BF00281CBFA0
:101228004FF0FF314FF0FF3000F00CB8ADF1080C73
:101238006DE904CE00F022F8DDF804E0DDE90223D0
:1012480004B07047704700BF10F8012B11F8013B3C
:10125800012A28BF9A42F7D0D01A7047034611F8DE
:10126800012B03F8012B002AF9D17047034613F824
:10127800012B002AFBD1181A013870472DE9F047D5
:1012880086468C460846089E154674461946002B25
:1012980040F0C1808542B2FA82F245D94AB1C2F122
:1012A800200300FA02FC954094402EFA03F343EA27
:1012B8000C0C4FEA154EA8B2230CBCFBFEF80EFB33
:1012C80018CC08FB00F943EA0C43994528D9EB18D8
:1012D80008F1FF3704D2994502D9A8F102072B4437
:1012E800A3EB0903A4B2B3FBFEFC0EFB1C330CFBFF
:1012F80000F044EA0344A04214D92C190CF1FF333E
:1013080004D2A04202D9ACF102032C44241A43EAC5
:1013180007401EB1D440002334607360BDE8F087F5
:101328004746DDE76346F1E792BB431B01214FEADD
:10133800154EAFB2200CB3FBFEFC0EFB1C330CFBAE
:1013480007F840EA0343984561D9EB180CF1FF30E0
:1013580004D2984502D9ACF102002B44A3EB080350
:10136800A4B2B3FBFEFC0EFB1C330CFB07F744EAEC
:101378000344A7424DD92C190CF1FF3304D2A742DC
:1013880002D9ACF102032C44E41B43EA0040C0E755
:10139800C2F120039540944020FA03F12EFA03F39A
:1013A8004FEA154E9040AFB20343B1FBFEFC0EFB73
:1013B8001C10190C0CFB07F841EA0041884522D99A
:1013C80069180CF1FF3004D2884502D9ACF102004B
:1013D8002944A1EB08019BB2B1FBFEFC0EFB1C11DA
:1013E8000CFB07F743EA01439F420ED9EB180CF1B7
:1013F800FF3104D29F4202D9ACF102012B44DB1B1E
:1014080041EA004193E76046E3E76146F7E7604653
:10141800A4E76346B8E7834206D916B9002108460F
:101428007CE7C6E900E0F9E7B3FA83F78FB98342AE
:1014380001D3724508D8BEEB020460EB0303012018
:101448009C461EB9002169E73846FAE7C6E9004C10
:10145800F8E7C7F1200CBB400EFA07F522FA0CF4A6
:101468002EFA0CF1BA401C4320FA0CF3B8404FEAAC
:10147800144901431FFA84FEB3FBF9F809FB18303D
:101488000B0C08FB0EFA43EA00439A4540D9E318CF
:1014980008F1FF3004D29A4502D9A8F1020023448A
:1014A800A3EB0A0389B2B3FBF9F809FB183308FB6D
:1014B8000EFE41EA03418E452CD9611808F1FF332D
:1014C80004D28E4502D9A8F10203214443EA004020
:1014D800A1EB0E01A0FB02984145CE46434602D33C
:1014E80006D14D4504D20138B9EB020E68EB04036E
:1014F800002EA7D0B5EB0E0261EB030101FA0CFC3C
:1015080022FA07F3F9404CEA0303C6E9003199E7E8
:101518004046C5E74346D9E70022F0B585B01146F5
:1015280040F6034002AF07F043F90446002840F0B4
:10153800A48006F0E9FC214641F203003A1D07F0B9
:1015480037F90446002840F098807A684D4DD168F4
:1015580005F17803D1F80100D1F8051003C310464E
:1015680005F06CFA214641F201003A1D07F020F916
:101578000446002840F081807868C3685A7885F866
:1015880070205A88A5F872201A7985F87120B3F866
:101598000720A5F87420B3F80530A5F8763005F0D3
:1015A8004DFA214641F202003A1D07F001F90446BE
:1015B800002862D1D7F804C005F18006DCF80C20B9
:1015C800531C4132344618685968083303C493429F
:1015D8002646F7D1604605F031FA08F033FB044699
:1015E80000284AD195F88A30990610D40221264A53
:1015F80026481FF095F995F87C305A064AD40121FF
:10160800234A22481FF08CF96FF0120435E04FF09E
:10161800FF304FF0FF3106F097FC0646002800F037
:10162800498107210C3005F037FB452303700A2355
:10163800C0F802408471447004712246C370314678
:1016480040F6334007F0B4F80446B0B94FF0FF3025
:101658004FF0FF3106F078FC0646002800F02A819A
:1016680001210C301FF02FF82246314640F6314058
:1016780007F09EF804460028BDD020460C37BD462A
:10168800F0BD00BFC004002087880200585802003F
:10169800B5880200002142F203003A1D07F088F8DD
:1016A80004460028E9D17A68A74BD168D1F801002F
:1016B800D1F8051003C3104605F0C0F9214642F2DF
:1016C80002003A1D07F074F804460028D5D17E6858
:1016D800F468B4F801309AB292B1E27882B1A5F810
:1016E8000431E378032B06D00322022100929748A5
:1016F800974A1EF079FDE2789648114622F0FEFBE3
:10170800304605F09BF91F2395F87C60A5F8203139
:1017180016F0200619D14FF0FF304FF0FF3106F0D8
:1017280013FC0446002800F0C58002210C3005F0A7
:10173800B3FA0123214603704670324640F66D40E5
:1017480007F036F80446002897D195F89C301B0717
:1017580012D5002142F21C003A1D07F029F8044670
:1017680000288AD17868C368D3F80120D3F80530F7
:10177800C5E9382305F062F995F8D8309E0623D5D7
:101788003846B91C07F0F4F8044600287FF475AF12
:101798004FF0FF304FF0FF3106F0D6FB0646002829
:1017A80000F0888004210C3005F076FA3B88224648
:1017B80003807B883146438042F2240006F0F8FF1C
:1017C800044600287FF459AF95F8D8305C0610D548
:1017D800002142F22A003A1D06F0EAFF04460028DA
:1017E8007FF44BAF7868C3685B7885F8223105F0E1
:1017F80025F94FF0FF304FF0FF3106F0A5FB044606
:10180800002857D008210C3005F046FA95F8D81072
:1018180040F2022311F0400F08BF03230246880755
:101828004CBF43F02C0043F00C008B0695F8D930E0
:1018380048BF40F0400013F0090F18BF40F40060A3
:10184800CE0748BF40F0100000211FF083F8214662
:10185800002242F2010006F0ABFF044600287FF4A4
:101868000CAF95F87C30B5F80411980625D4C9B9A1
:1018780041F205003A1D06F09BFF044600287FF45C
:10188800FCAEB5F804317C684BB9E368B3F80120C5
:10189800A5F804219A882F48114622F02FFB2046EC
:1018A80005F0CCF84FF0FF304FF0FF3106F04CFB5D
:1018B800044660B96FF06804DFE60029F2D101211F
:1018C800254A22481FF02CF86FF00404D5E60821B9
:1018D8000C3005F0E1F995F8D8300246D9072AD43A
:1018E8004FF000511D481FF035F82146002240F600
:1018F800014006F05DFF044600287FF4BEAE0146B5
:101908003A1D4FF6014006F053FF58B3144A02211E
:101918000E481FF005F81FF00FFA044600287FF460
:10192800ACAE09F05FFE044600287FF4A6AE06F0D0
:1019380031FD0446A1E602A1D1E90001D3E700BFC9
:101948009088000200800020980500205858020066
:10195800D9880200C80500201F89020010880002EB
:10196800428902007B686E46DC688AB0B4F80130B0
:10197800032B96BF424A434952F8231002AAD36167
:101988004FF4007340481384404BC2E9050142F804
:10199800103F4FF413513E481EF0D1FFB4F8012018
:1019A800B546022AB4F8033049D1052B47D8394A3D
:1019B80052F823106E468AB002AAD3614FF400731E
:1019C80035481384314BC2E9050142F8103F4FF402
:1019D80013512F481EF0B3FFB546637994F806C03B
:1019E800032B98BF2D4AB4F80760D4F809006C4659
:1019F8008CB094BF52F82310224902AAC2E9073CCE
:101A08004FF40073DFF898E09385264BC2E905E1AF
:101A1800C2E909604FF4735142F8103F1C481EF0A8
:101A28008EFFA546786805F009F800214FF60240B8
:101A38003A1D06F0BDFE044618B11B4A67E7114976
:101A4800B8E77868C368B3F80130A5F8C13004F086
:101A5800F5FF95F8C1305B077FF55DAF21464FF67E
:101A680003403A1D06F0A4FE08B1104A4FE7786813
:101A7800C3685B7885F8C03004F0E0FF4BE700BF2F
:101A8800805D02008485020066890200040000016E
:101A980058580200685D02007F890200585D020004
:101AA8009789020007000001C4890200ED8902003D
:101AB80070B503788AB004460E4607AD032B20D8CC
:101AC800DFE803F002191B1D11492846FFF7C6FB82
:101AD800059563781E210493A37830460393E37831
:101AE8000C4A02932379019363790093A3791CF03C
:101AF8006DFF0AB070BD0849E7E70849E5E70849FE
:101B0800E3E70A212846074A1CF060FFE0E700BF28
:101B1800DC660200FE660200E3660200EA66020076
:101B2800F46602004DA60200F0B5144689B000AF75
:101B38000D461FF0E2FA3946FFF7BAFFACB96C461A
:101B48008AB06A46144BD561C2E905374FF4007371
:101B58001384124B4FF41351114842F8103F1DF0F3
:101B680038FAA5462437BD46F0BD6E468CB06B46A4
:101B78000C4AC3E90754C3E905270B4A4FF46251DD
:101B88005A620A4A06489A621A46094B42F8103FB6
:101B98001DF01FFAB546E5E72167020004000001C1
:101BA800205902003F670200587D02000002030529
:101BB8000600000290B589B000AF0C461FF09DFAF0
:101BC8003946FFF775FF8AB06A46094BD461C2E906
:101BD8000537084B4FF443511362074B07485362CC
:101BE800074B42F8103F1DF0F4F92437BD4690BD6D
:101BF80066670200587D02000002020420590200B4
:101C08000500000290B589B000AF0C461FF075FAC8
:101C18003946FFF74DFF8AB06A46094BD461C2E9DD
:101C280005374FF400731384064B4FF413510648DD
:101C380042F8103F1DF0CDF92437BD4690BD00BFD6
:101C48008C670200040000012059020090B589B099
:101C580000AF0C461FF051FA3946FFF729FF8AB04A
:101C68006A46094BD461C2E905374FF400731384FF
:101C7800064B4FF41351064842F8103F1DF0A9F9DE
:101C88002437BD4690BD00BFAE67020004000001C6
:101C980020590200B0B588B000AF0C461FF02DFAED
:101CA8003946FFF705FF6D468AB06A46124BD46184
:101CB800C2E90537114B124C1362124B124853629A
:101CC800124B4FF4435142F8103F1DF082F920683F
:101CD800AD4618B108F0DEFD002323600C4C2068E7
:101CE80030B108F0D7FD00230120236021F01FFA4E
:101CF8002037BD46B0BD00BFC3670200587D020053
:101D08003C200020000202042059020005000002C5
:101D180040200020B0B588B0044600AFB1B16C4691
:101D28008AB06A46194B1A48C2E90531194B4FF473
:101D38001151D36140F201331384174B42F8103F1D
:101D48001DF047F9A5462037BD46B0BD1FF0D5F9AF
:101D58003946FFF7ADFE6D4688B06A460F4B4FF423
:101D6800E651C2E905374FF4007393830C4B0848DA
:101D780042F8103F1DF02DF92046AD4608F0A2FCB0
:101D8800084B1860012021F0CFF9DCE7E667020074
:101D980020590200587D0200040000010768020073
:101DA800030000014020002080B588B000AF1FF07C
:101DB800A4F93946FFF77CFE88B06A46084B4FF411
:101DC800E651C2E905374FF400739383054B064883
:101DD80042F8103F1DF0FDF82037BD4680BD00BF1A
:101DE80014680200030000012059020008B50548E4
:101DF8000321054A1EF0E5F9BDE80840034814F040
:101E0800E9BF00BF205902002A6802002C200020E8
:101E1800F8B51E4C0546206800AF002833D00D40A9
:101E2800EA0716D51FF09BF96E4688B023686A4604
:101E380017491848C2E9051303234FF4C65142F85D
:101E4800103F1DF0C6F8B546206808F023FD0023B2
:101E58002360AB0717D520681FF092F96D4688B04C
:101E680023686A460C490B48C2E9051303234FF45B
:101E7800C65142F8103F1DF0ACF8AD46206808F096
:101E880009FD00232360BD46F8BD00BF3C200020AB
:101E98007268020020590200896802002DE9F043A7
:101EA8008BB002AF4FF0FF324FF0FF331F4814F0F2
:101EB8003DFC64243C251E4EDFF878803368CBB1A6
:101EC800632D96BF01353C25EDB2CCB1013CE4B29F
:101ED800424620212B46384600941CF077FD3946AF
:101EE80082B2306803F0EEFA60B10221124A134858
:101EF8001EF067F900214FF4004016F095FBDDE76E
:101F08006424E5E7E94688B002AA0D4B4FF4E65190
:101F1800C2E905374FF4007393830A4B074842F828
:101F2800103F1DF056F8CD46E4E700BF680B0020CF
:101F380040200020A1680200AE680200205902007B
:101F4800C66802000300000130B50F4D89B003AC2C
:101F58000FCD0FC42B680222236001240B4B0C49C0
:101F6800009403A807F052FD034630B1094A214600
:101F780009481EF02FF909B030BD0321074A064869
:101F88001EF01FF9F7E700BF305A0200085B020095
:101F9800105B0200D368020020590200F8680200B2
:101FA800B0B588B000AF0C46054608F08BFB124B65
:101FB800186028461FF0A1F83946FFF779FD6D46ED
:101FC8008AB06A460D4BD461C2E905374FF40073F5
:101FD8000B4C13840B4B4FF41351204642F8103F1F
:101FE8001CF0F7FFAD4603212046074A1EF0E9F82A
:101FF8002037BD46B0BD00BF3C200020AE670200C0
:1020080020590200040000011969020010B52A488D
:1020180010F072FF034620B10121284A28481EF01B
:10202800D9F810F037FF034620B10121254A24488A
:102038001EF0D0F8244809F09BFA034630B1234A31
:1020480001211F481EF0C6F8002010BD204809F0E5
:10205800A9FA034608B11F4AF2E706F0D3FC08B113
:102068001CF0BAFF03211C4A15481EF0AAF81B48A9
:1020780014F0D8FA1EF05EF9194803F017FA04466E
:1020880010B1184A0346DBE70321174A0C481EF033
:1020980098F81648164914F0BDFD144814F09AFE35
:1020A800013404F00101002010F0B6FF00214FF4C4
:1020B800004016F0B9FAF3E7191E0000486902005B
:1020C8002059020066690200480600208169020062
:1020D80038060020B7690200F2690200680B002088
:1020E80020200020086A0200336A02002C20002009
:1020F800511F000010B5094C0A44914200D110BD8F
:1021080011F8013B58400309E35C0001C0B24340A9
:102118001809205C1B01DBB25840EEE7836A020015
:10212800F8B50F4600293BD00668012230461CF05E
:1021380096FF0146044630461CF059FFC3070DD4EC
:10214800AF23184A184919481DF093F93946184819
:102158001DF08FF9AF2113481DF082F92146304652
:102168001CF05BFF25182946002230461CF03FFF73
:102178002D1AAC420BD0B7230A4A0E490B481DF062
:1021880078F939460C481DF074F9B721E3E7214680
:1021980030461CF048FF2146BDE8F8401DF084B8E1
:1021A800F8BD00BF936A0200B66A0200C76A02005F
:1021B800E46A02001C6B0200426B0200B2F5802F39
:1021C8002DE9F04110D2042A28D843494FF4077367
:1021D800424A43481DF04DF942481DF04AF94FF470
:1021E80007713E481DF03CF90823D21ACC1D114452
:1021F80024F0070421F00701091B17294FEAD1062B
:102208000ED8394940F22523344A35481DF031F9B2
:1022180034481DF02EF940F22521E2E70423E4E7D3
:102228000027046031463046A660E7601CF02AFFAC
:102238000121421D804630461CF01BFF9200D51D2F
:10224800ED082844B0423AD8B8F1FF3F3946A2F128
:10225800100204F11000B8BF3A4622F074FF2A4673
:10226800394620461CF0F7FE3B463A46394620469A
:102278001CF0C8FEA6EB05082046394601221CF0D2
:10228800D2FE424629461CF0E6FE2B463A4629462F
:1022980020461CF0B7FE314620461CF0DCFE4346C3
:1022A8003A46314620461CF0ADFE31462046012212
:1022B8001CF0B9FE2946BDE8F0411CF0B3BF0B493C
:1022C80040F23A23054A06481DF0D3F805481DF0A8
:1022D800D0F840F23A2184E77E6B0200936A02004C
:1022E800C76A02009F6B0200B86B0200E16B020034
:1022F8002DE9F04F97B000AF89460446D7F880B073
:10230800FA623B6258B9A94940F29933A84AA948E8
:102318001DF0AFF840F29931A5481DF0A1F8CBF3B4
:10232800C00390F802A07B6141B9457800780AEBB8
:10233800800020444D4517D8A0EB0409E378FB61E1
:10234800BAF1000F02D01BF0010F16D1FB6953BB85
:10235800FB6A1BB1494620463A6A98474D462846CB
:102368005C37BD46BDE8F08F461C3046FEF77EFF61
:102378000130304409F10109DCE7626823787A62A8
:10238800FA6A9900B96104EB8301002A40F00281DE
:102398000E464FF000084D4601EB0A094E454CD158
:1023A80001EB0A0610E01BF0020FD1D023789A0047
:1023B800BA61626804EB83017A62FA6A002A77D10B
:1023C8004D46904601EB0A061BF0050F0CBF022391
:1023D8000123FB62FB6906EB430A0BF00203BB62B5
:1023E8005645BCD016F8021B16F8013C54F8239049
:1023F800714B994502D3714B994536D37B69002BB4
:1024080040D0786A1CF0F8FF00283BD0E9468AB033
:102418006A466B4B53617B6AC2E906314FF400731D
:102428001384684B42F8103F00234FF4125166485A
:1024380002F008FA023DCD46D2E716F8013BF962F0
:1024480054F82300FEF712FFD7F88430F96A0130F8
:102458004BB1D7F8883098453EBFD7F8843023F879
:10246800180008F10108054498E77B6923B1786AE8
:102478001CF0C2FF0028C9D11BF0010F05D1FB6A6F
:10248800ED1AADE7BB6A002BAAD04846FEF7EEFE70
:10249800D7F8843053B1D7F8883098453FBFD7F87C
:1024A8008420431C22F8183008F10108054497E7F6
:1024B800BAF1000F74D01BF0040674D0D046002681
:1024C80007F1480052463B61B96222F015FEB96A2D
:1024D8003B6901EB0A02BA62FA69F9695200FA60CB
:1024E800BA6A02EB41023A610BF00202BA60BA6AB8
:1024F80039698A426AD162781BF0020F18BF00213D
:102508007A6208BF4FEA5801B2181BF0010FD2B225
:1025180040F0E5801BF0040F14BF404600207B61AB
:102528006270A070E17020463A6AB969FB6A984700
:10253800051EFFF614AF7B69414623707B6A3A6A31
:102548006370FB6984F802A0E37007F14800FB6A36
:102558009847B0F10008C0F2F680BB69A9EB0A0100
:10256800C91AFB683A6AC91AD7E90A0398470028C2
:10257800C0F2EB804FF0000BA84408EB000507F110
:10258800380AB345C0F0AD8000213A6A0846FB6AB4
:102598009847E4E656464FF0000807F1380091E7FF
:1025A8005646D04695E7B04693E700BFA16C0200B7
:1025B8000C6C0200C76A0200AC520200A0CB0200F9
:1025C800BC6C020004000001B0580200BA6A12F89C
:1025D800021B12F8015CBA6254F825005C4A90426A
:1025E80002D35C4A904218D37A693AB1786A7B6020
:1025F8001CF002FF7B6800287FF479AFBA68002AD4
:102608004CD00F2E40D9544940F24D43534A5448B8
:102618001CF02FFF40F24D417EE67A693AB1786AA4
:102628007B601CF0E9FE7B6800287FF460AF1BF03C
:10263800010F0BD00F2E27D9474940F24343474A91
:1026480047481CF016FF40F2434165E61BF0040FB3
:102658003FF44DAFB8F10F0F09D9424940F2464354
:102668003E4A3F481CF005FF40F2464154E608F157
:10267800280207F1300008F1010102EB000808F810
:10268800105C5FFA81F832E706F1280207F13000A2
:10269800711C161806F8205CCEB228E7B8F10F0FA7
:1026A80009D930494FF48A632C4A2D481CF0E1FEC1
:1026B8004FF48A6130E608F1280207F1300C08F17E
:1026C8000100944407F1580208F1020852FA80F018
:1026D8000CF8101C5FFA88F800F8105C07E7002077
:1026E8001DE71BF80A3054F8239087F83730D7F8DD
:1026F80084302BB3D7F888309B4521D2D7F8843063
:1027080033F81B8001213A6AFB6A07F137009847C2
:1027180000281ADB0544B8F1000F06D14846FEF739
:10272800A5FD00F101081FFA88F8414648463A6AB3
:10273800FB6A9847002808DB05440BF1010B20E7EA
:102748004FF00008DEE7454609E6054607E600BF04
:10275800AC520200A0CB02005F6D02000C6C0200BC
:10276800C76A02007E6D0200014B1B68184700BF54
:1027780060060020014B1860704700BF600600200B
:1027880030B585B004460D4610220021684622F077
:10279800DAFC02238DF80230044B2A4621466846AB
:1027A80001931CF0A5F905B030BD00BF71270000EA
:1027B80080B505460E461746984615F0D1FF0346E4
:1027C80022F066FD0446DFF81890424649F80030CA
:1027D80039463046A84754F8090003F013FB00BFF8
:1027E8000800000038B50D4604462022002122F0DA
:1027F800AAFC0022EB68E361AB68A3612B68236243
:102808006B68A26263622A6923B1591E194208BF24
:1028180042F0010222610122002104F12C0021F082
:102828006DFB48B1054906482F23064A1CF021FED6
:102838002F2104481CF014FE38BD00BF23A5020058
:10284800C76A0200AF6D02002DE9F04F002789B07A
:10285800CDE90123436A04468B428846BA46059768
:10286800079754D300F11406EFF31185202383F35F
:102878001288BFF36F8F3046A94616F0E7F958B9AA
:1028880088234D4A4D494E481CF0F3FD31464D48CA
:102898001CF0EFFD882163E0304616F0FBF9079A3B
:1028A8002AB1394620461CF0CEFE0023079306A91C
:1028B80020461CF0EBFD06998346414530D322683B
:1028C800236A204613F8221003EB820A21F0030141
:1028D80003F82210216842461CF0FCFDE3682060E2
:1028E800984218D04FF0000B304616F0BDF950B39F
:1028F80089F31188BFF36F8F059929B1A2690AB1CD
:102908002046904700230593BBF1000FACD15046F9
:1029180009B0BDE8F08F236943F008032361E1E7BC
:1029280018B120461CF0F0FDDEE7DDE90132134363
:1029380039D0039121F057FB0399A0BB9DBB3046CA
:1029480016F092F978B940F231131B4A1E491C4817
:102958001CF08FFD31461D481CF08BFD40F23111F3
:1029680015481CF07DFD85F31188BFF36F8F04F1C6
:102978002C00DDE9012313F0D9FE8346EFF311891A
:10298800202383F31288BFF36F8F304616F05EF969
:1029980000283FF475AFBBFA8BFB304616F07AF986
:1029A8004FEA5B1BA0E7204607AB05AA27681CF087
:1029B800CAFD834698E700BFD56D0200026E02008B
:1029C800C76A0200176E02002D6E0200446E0200F4
:1029D8002DE9F0410446C36908460E46984704F1BC
:1029E80014050746EFF31188202383F31288BFF3F9
:1029F8006F8F284616F02AF968B988231A4A1B49A6
:102A08001B481CF036FD29461A481CF032FD882167
:102A180015481CF025FD284616F03CF933783A464F
:102A280043F001033370616820461CF053FD606079
:102A380020461CF023FE284616F016F968B940F225
:102A48003113094A0C490A481CF013FD29460B4862
:102A58001CF00FFD40F23111DAE788F31188BFF35B
:102A68006F8FBDE8F08100BFD56D0200026E0200D5
:102A7800C76A0200176E02002D6E0200446E020043
:102A88002DE9F843044600F11407EFF311882023D9
:102A980083F31288BFF36F8F384616F0D7F80546D0
:102AA80068B98823344A354935481CF0E2FC394670
:102AB80034481CF0DEFC88212F481CF0D1FC384635
:102AC80016F0E8F82369A26813F0080F02D16368CA
:102AD8009A4200D9636A9B1A002B3FD0216A11F8E9
:102AE800223001EB820913F003003AD0022803D107
:102AF80051F82260B60805D1D8071FD44846E369C3
:102B080098470646A168324620461CF0E3FC314649
:102B1800A06020461CF0ECFC384616F0A5F810BB67
:102B280040F23113144A184915481CF0A2FC3946E2
:102B380016481CF09EFC40F23111BDE743F0020339
:102B480001F82230E3694846A568984729460246B5
:102B580020461CF0BFFC0025A060DDE71D46A94605
:102B6800DAE70546FBE788F31188BFF36F8F002D7E
:102B78008BD14846BDE8F883D56D0200026E02008D
:102B8800C76A0200176E02002D6E0200446E020032
:102B98002DE9F0410446C36908460D46984704F1FB
:102BA80014060746EFF31188202383F31288BFF336
:102BB8006F8F304616F04AF868B98823274A2849A3
:102BC80028481CF056FC314627481CF052FC882146
:102BD80022481CF045FC304616F05CF82B786FF361
:102BE80000032B7023699B0705D5E268236A03EB72
:102BF80082039D4222D12B786FF341032B70D4E9D5
:102C08000231994204D13A4620461CF063FCA06088
:102C1800394620461CF06CFC304616F025F890B971
:102C280040F231130D4A11490E481CF022FC31467E
:102C38000F481CF01EFC40F23111C9E72B6867F3FE
:102C48009F032B60E8E788F31188BFF36F8F04F1C7
:102C58002C00BDE8F04113F0E5BC00BFD56D0200C3
:102C6800026E0200C76A0200176E02002D6E020093
:102C7800446E020070B5044600F11405EFF31186A6
:102C8800202383F31288BFF36F8F284615F0DEFFE9
:102C980068B988231A4A1B491B481CF0EAFB2946D5
:102CA8001A481CF0E6FB882115481CF0D9FB284679
:102CB80015F0F0FF2369A06813F0080F02D16368CC
:102CC800984213D9646A241A284615F0CDFF78B9BA
:102CD80040F231130A4A0E490B481CF0CAFB294638
:102CE8000C481CF0C6FB40F23111DDE71C1AEBE77B
:102CF80086F31188BFF36F8F201E18BF012070BDA7
:102D0800D56D0200026E0200C76A0200176E02004B
:102D18002D6E0200446E02002DE9F84F0446A38B85
:102D280008461907154612D4022803F0070165D191
:102D380020461CF029FD88B10138042800F23781AB
:102D4800DFE810F05C0035018200D400040101289E
:102D58000CBF43F0100143F02001A1831434204636
:102D680015F082FF002840F09D819A4940F2311306
:102D7800994A9A481CF07DFB2146B1E003F007020E
:102D8800501F01281ED80020062A2768C4E9000021
:102D980014D13A4603E0E08B0130E0831268002A40
:102DA800F9D123F0070343F002022046A2831CF066
:102DB800EBFC90B342F02002A2832EE023F007033D
:102DC8009AB2F2E7042A33D123F007039AB22046D5
:102DD800A2831CF0D9FC10B142F02002A283A38B7D
:102DE80003F00709894540F0EC80A18BCA0640F141
:102DF800508121F01003A38301F00701D4F8188053
:102E0800A38BB8F1000FB9DA0022276823F0070373
:102E1800C4E9002243F00103A383A38B03F007094D
:102E2800894540F0CF80002FDFD00026B24644E02D
:102E38006B4940F21B136B4A68481CF01AFB40F2BE
:102E48001B1168481CF00CFB49B167494FF4AB7380
:102E5800644A62481CF00DFB4FF4AB71F1E723683C
:102E68004BB9624940F257135E4A5C481CF001FBBB
:102E780040F25711E5E723691E684EB95C494FF4E3
:102E8800AD73584A55481CF0F4FA4FF4AD71D8E7C1
:102E98000F4688464FF00609A38B23F0070343F03B
:102EA80006039BB2A383A268002A40F08D80002FFE
:102EB80040F08D80002E98D0BA4643F0080304F104
:102EC800140B5846A38315F0CFFE002840F09A80D3
:102ED800404940F23113404A40481CF0CAFA59466A
:102EE80044481CF0C6FA40F23111ADE0022909D07D
:102EF800414940F25D133B4A38481CF0BAFA40F2A7
:102F08005D119EE7E78B4FB13C494FF4AF73354AEB
:102F180032481CF0AEFA4FF4AF7192E723695E684D
:102F28004EB9334940F261132E4A2C481CF0A1FADD
:102F380040F2611185E7A38BB84623F0070343F0FD
:102F480004039BB24FF00409A383ACE7012909D01D
:102F58002B494FF4B273234A20481CF08AFA4FF4E5
:102F6800B2716EE723684BB9204940F265131D4AD8
:102F78001A481CF07EFA40F2651162E723699E68E0
:102F88004EB91B494FF4B473164A14481CF071FA31
:102F98004FF4B47155E70027A38BB84623F0070315
:102FA80043F005039BB24FF00509A3837BE70C4967
:102FB80040F26B130B4A09481CF05BFA40F26B11A4
:102FC8003FE7002700266EE74FF0010A75E79246B3
:102FD80073E700BF2D6E0200D56D0200C76A0200BC
:102FE80068B40200596E02007E6E02008A6E02000A
:102FF800AD6E0200446E0200C46E0200DA6E02007A
:10300800E96E020085F31188BFF36F8FBAF1000FE4
:103018001CD177BB16B120462549B047EFF311857F
:10302800202383F31288BFF36F8F584615F00EFEE6
:1030380038BB88231F4A204920481CF01AFA5946F1
:103048001F481CF016FA88211A48FBE6A1680029D7
:10305800DFD00D680029DCD043464A462046D1F827
:1030680004A0D0471DB12B6829461D46F2E72B4620
:10307800FAE7394643464A4620463F681CF0B0FB0B
:10308800C7E7584615F006FEA38B23F00803A38371
:10309800ABE68B067FF562AE21F02003A38301F037
:1030A800070145E685F31188BFF36F8FBDE8F88FF8
:1030B800CD300000D56D0200026E0200C76A020022
:1030C800176E0200F8B504460D4600F11406EFF33A
:1030D8001187202383F31288BFF36F8F304615F0D2
:1030E800B5FD68B988230C4A0C490D481CF0C1F994
:1030F80031460C481CF0BDF9882107481CF0B0F98E
:10310800304615F0C7FDA5613A462046BDE8F840AF
:103118000121FFF701BE00BFD56D0200026E02005B
:10312800C76A0200176E02002DE9F04704460F46F1
:103138001CF046FB051E68DB04F11409EFF3118A45
:10314800202383F31288BFF36F8F484615F07EFD66
:10315800804660B98823384A384939481CF089F9CB
:10316800494638481CF085F98821334842E04846EA
:1031780015F090FD4FF6FF72E38BA68B934206F095
:10318800070645D0022E15D135460133E38348465C
:1031980015F06AFD002841D140F23113264A2A4928
:1031A80027481CF066F9494628481CF062F940F2A5
:1031B8003111DAE7062E13D8DFE806F0092D1212CE
:1031C800090409006FF085054FF00008DFE70023C8
:1031D8003B60636883B9C4E9007786B13546F3E795
:1031E8001B4917484FF4E4731A4A1CF042F94FF48C
:1031F800E47118481CF034F91F606760EDE7524627
:1032080002212046FFF788FD35462846BDE8F087AD
:103218006FF00A05D8E76FF00405D5E78AF311883F
:10322800BFF36F8FB8F1000FEFD000233246394655
:1032380020461CF0D5FAE8E7D56D0200026E0200C0
:10324800C76A0200176E02002D6E0200446E02006B
:10325800E96E0200596E0200F8B5054600F1140641
:10326800EFF31187202383F31288BFF36F8F304663
:1032780015F0ECFC60B98823254A264926481CF03D
:10328800F8F8314625481CF0F4F8882120482BE04E
:10329800304615F0FFFCAC8B04F00704022C17D065
:1032A800012C0CBF6FF004046FF08504304615F054
:1032B800DBFC38BB40F23113154A194916481CF09B
:1032C800D8F8314617481CF0D4F840F23111DDE740
:1032D800EB8B5BB91449104840F2EF13134A1CF00A
:1032E800C8F840F2EF1111481CF0BAF8013B9BB244
:1032F800EB83002BDAD13A4621462846FFF70CFD2E
:103308002046F8BD87F31188BFF36F8FF8E700BF39
:10331800D56D0200026E0200C76A0200176E020035
:103328002D6E0200446E0200FF6E0200596E02000C
:1033380008B54268034602F00302022A81600AD0F7
:10334800032A4FF0000103D0012A0AD1596006E090
:103358001868596008BD186800225A6058B90020DA
:10336800F8E7064906484523064A1CF082F8452135
:1033780004481CF075F816F0E7F8F0E768B40200A6
:10338800C76A02000D6F02002DE9F7430F46064693
:103398000821C06A1CF0CCFA80463C68DFF84890E7
:1033A800241A3C6004EA0905AC4203D8002003B0A3
:1033B800BDE8F08308236A46214630461CF04EFAE1
:1033C8000028F4D1694630461CF0BCFA40B1BDF87B
:1033D8000230BDF8042005EA090513441D443C6089
:1033E800A4EB0804E0E700BF0000FFFF73B5044644
:1033F8004FF6FF72C06A08211CF09AFA002563682C
:103408000F4EADF800208DF80620A2891918334018
:103418001344181A60606846ADF80210ADF80450FD
:103428001CF07DFA694620461CF04CFB2046211D05
:103438001CF04DFA284663683340A36002B070BDA3
:103448000000FFFF2DE9F04704468AB000F1140799
:10345800384620F01AFDA06A8368DB689847E06266
:1034680050B9864A012186481CF03EFA6FF01505CE
:1034780028460AB0BDE8F087A06A8368DB689847E9
:103488000368013B1F2B01D97E4AEBE7A06A21683C
:1034980007AA1FF067F908B17B4AE3E7A5892DB1B0
:1034A800089BB5FBF3F203FB12550DB1774AD9E738
:1034B800E389012B01D8764AD4E7E36A029593F8A9
:1034C80005904FF0FF334FF0FF32384612F094FD6D
:1034D8000821E06A1CF02CFAA8460646E3891FFA80
:1034E80085FA534508D8E389434523D1384612F075
:1034F80053FE6FF02C05BBE7A1892B04891B13FA37
:1035080081F14A460823204602911CF0B5F978B1AA
:10351800204602A91CF0DBF908F1010808234A46F5
:10352800204602991FFA88F81CF0A6F90028DAD07C
:103538000135D3E753450BD1029908234A46204663
:10354800891B1CF099F918B9204602A91CF0BFF98B
:10355800204602A9FFF718FF054618B1384612F0B1
:103568001BFE85E7029B4FEA13484FEA0848636051
:10357800C4F80880D4E9011399420FD308232046E0
:1035880003AA1CF06BF905460028E7D103AB13F832
:10359800012B91453DD10135082DF8D163682046AE
:1035A8001B0C1B0402A902931CF091F94A46204601
:1035B800A38902991CF060F9051ECFDB63687BD0F4
:1035C8004FF6FF7906EB0308A3891FFA88F29B1BC5
:1035D8009A42CDF8088038D303212E4A28481CF097
:1035E80083F9204661681CF081F905460028B5D1A9
:1035F8006368294AA18913400B44A3EB460363601F
:1036080013402046A3601CF085FA0546002D6FD0B4
:10361800A4E7204603A91CF095F9626810B9921B2B
:103628006260A7E7BDF81050BDF80E10E06AC4F854
:10363800088029441CF07CF940449042A060EED1F7
:10364800002DECD06FF01C057DE008234146204694
:1036580005AA1CF003F9054600287FF47FAF204631
:1036680005A91CF06FF938B1BDF814304B4503D1EA
:10367800BDF81830002B6CD0B044A5E7476F0200A6
:10368800D8580200696F0200866F02009E6F020020
:10369800B26F02000F7002000000FFFF4A4620468A
:1036A8005B1A1CF0E9F8051EFFF658AF08D0E26A6D
:1036B800A36812681344A360D4E901318B42EDD8A2
:1036C8006168A38901EB46029A429FD1DFF8A8807E
:1036D800A26801EA08039A4298D020461CF006F92D
:1036E800054600287FF43AAF636803EA0803A3603D
:1036F800A389A288A3EB46039A4220D0384612F049
:103708004BFD0123A2892374E389032100921B48FE
:103718001B4A1CF069FD63689AB200920321194A9A
:1037280016481B0C1CF060FDA3689AB20092032196
:10373800154A12481B0C1CF057FD002598E6204638
:103748001CF0D1F90546384612F026FD002DD8D0D8
:103758008EE60E4A032109481CF0C6F86368204625
:103768001B0C1B0402A902931CF0B1F82046029915
:103778001CF0BCF849E700BF0000FFFFD858020062
:10378800D56F0200EC6F0200FE6F02003670020077
:103798002DE9F04F1D46037C91B00446029100923A
:1037A80053B90121634A64481CF09EF86FF00C0677
:1037B800304611B0BDE8F08FC26A082110461CF0EF
:1037C800B7F82946019010461CF0B2F8A389019A6F
:1037D8000746A3EB8203AB42C0F0A9801DB1009B52
:1037E800002B00F0A48063680593204606AA05A96B
:1037F800DDF814A01CF0E3F806460028D8D1BDF87F
:103808001830029A934206D06268059B9A42ECD11E
:10381800002D36D1CCE7204606A91CF093F80028E5
:10382800F2D0BDF81A80BDF81C3045B39D4228D1AE
:103838004FEA1A4A4FEA0A4AD044AA46E36ADDF830
:1038480000B01B685B4203F020030393DDF80C9083
:103858004146D14528BFD14620464B4608AA1BF011
:10386800FDFF00284AD14A46584608A921F073FCB2
:1038780038B9BAEB090AC844CB44E7D198E7002B1A
:1038880096D0002F3DD1B84604F1140A4FF0FF320C
:103898004FF0FF33504612F0AFFBE3899E4243D00E
:1038A800A168626808EB01039A422FD3029B204665
:1038B800ADF82030FF23009A8DF826302B46ADF85E
:1038C8002210ADF824501CF0C4F829460746E06AD7
:1038D8001CF02EF8A3680344A36057B908A81CF08D
:1038E8001EF8204608A91CF0EDF8002814BF07466A
:1038F8002F46504612F050FC3E4659E7C1DC0646BA
:1039080056E7019B1F441FFA87F8BDE72046FFF7DB
:103918006DFD07460028ECD120461CF0FBF8074651
:103928000028E6D10136B8E76FF01B07E1E76FF032
:1039380015063DE7336F0200D85802002DE9FF470E
:103948001E46037C04460F469046BDF830904BB99E
:103958002C4801212C4A1BF0C7FF6FF00C0004B063
:10396800BDE8F0870821C06A1BF0E2FFA389A3EB3A
:103978004003B34243D30025D4F804A0CDF804A0F3
:103988004D455146DDF804A009D9636853451ED159
:10399800BDF80830BB421AD06FF00100DFE72046BF
:1039A80002AA01A91CF00BF80028D8D1BDF80830EC
:1039B800BB4206D1204602A91BF0C4FF08B101355D
:1039C800ADB26268019B9A42DAD15146E0E7BDF890
:1039D8000C30002BE0D0A945DED8BDF80A00090C50
:1039E800B3424FEA014128BF3346014442462046CC
:1039F8001BF034FF0028B2D1BDF80C00AFE76FF020
:103A08001500ACE7D8580200336F020010B530B982
:103A18000B480C491CF056F96FF0150010BD83686F
:103A280033B9074808491CF04DF96FF00400F5E771
:103A38001B6813B1BDE8104018471846EEE700BFF1
:103A4800E0580200527002006370020010B530B9ED
:103A58000B480C491CF036F96FF0150010BD83684F
:103A680033B9074808491CF02DF96FF00400F5E751
:103A78005B6813B1BDE8104018471846EEE700BF71
:103A8800E0580200527002006370020070B508B17D
:103A980001B132B90B480C491CF014F96FF015004C
:103AA80070BD84680CB1E56835B9064807491CF053
:103AB80009F96FF00400F3E741F8040BE368BDE887
:103AC80070401847E05802008170020063700200DD
:103AD80010B5044630B9104810491CF0F3F86FF0DF
:103AE800150010BD006830B90B480D491CF0EAF804
:103AF8006FF00100F5E783680BB11B6933B906481D
:103B080008491CF0DFF86FF00400EAE7616898479D
:103B18000028E6D12060E4E7E0580200AD7002001A
:103B2800BE7002006370020070B51346044630B9D7
:103B3800104811491CF0C6F86FF0150070BD0068F8
:103B480030B90C480D491CF0BDF86FF00100F5E7DD
:103B580082680AB1956835B9064809491CF0B2F877
:103B68006FF00400EAE70A46AC466168BDE87040B9
:103B7800604700BFE0580200AD700200BE7002004E
:103B880063700200034A13680BB95268136000207F
:103B9800704700BF6406002030B50C460E4985B05A
:103BA8000291D0F8D4110546CDE9003100F1F001B9
:103BB8004FF0FF33204611F0A7F950B9012384F8DC
:103BC8006C30D5F8D03123B1204605B0BDE830407F
:103BD800184705B030BD00BFC5FD010038B50C461B
:103BE800114605461CF0ECF8034638B92846044946
:103BF8001CF0E6F803460020236038BD0120FBE7EF
:103C0800587D02002DE9F04F012381460569466879
:103C18008FB005F56B77D7E8EF2F002A03D1C7E8F7
:103C2800E13F0029F7D10CBF1A46002240F0BB80C3
:103C3800B368B16A05F5F8781C1F10461CF047F9FF
:103C4800844279D8013A00F0A880B2FA82F24FF0A3
:103C58000044D44072682046073222F00302C5F8B7
:103C68003C22B16A1CF033F9C5F84002B36A4046F9
:103C78006343033323F0030302EB4302230103EB03
:103C88004403093323F0030303EBC403C5F83422C8
:103C98001A440832C5F830227368C5F83842C5F8A6
:103CA8002C32424BC5E9AD63316800F0F1F90446A6
:103CB80000283FD1D9F810B0D9F804A0D9F80030BD
:103CC8000BF53479059004934846DAE90734012B5B
:103CD80008BF103C13F012F9DAF82400344904AB99
:103CE800009301EB8021234648464FF4806213F08D
:103CF8001FF92021DAF824302E4A06A81AF066FEA9
:103D080006A9484613F0FAFC2B490BF5307012F05F
:103D180081FFDAE9050183685C684CB15B46274A94
:103D2800A047044630B9DAE9050183681B692BB955
:103D38006FF05704002129E001327EE701229847FD
:103D480004460028F6D11E4B2846C5F8D0311D4B35
:103D5800C5F8D4311C4B0393D5F840320293D5F8FB
:103D68003C32CDE9008305F51173B26AD5F8A81382
:103D780000F056F904460028DCD105F1F00011F0F6
:103D880069F90028C5F8B0030ADB022138461CF09F
:103D98004BF820460FB0BDE8F08F6FF00B04C9E771
:103DA8006FF01504C6E76FF07704F2E71BFE010019
:103DB80000440020E370020001FE0100F5FD01004F
:103DC800D53D0000ADFF010061FE010013B50446BA
:103DD80040B100230122CDE90032074BD0E9091296
:103DE80011F066F8236F1B6823B1606F02B0BDE85D
:103DF8001040184702B010BD587D020013B50446A4
:103E08000846216901F56B71D1E8AF1F022910D16D
:103E180093B1A0B10121CDE900311346D0E90912CF
:103E280011F046F8074B984208BF6FF00B0002B03C
:103E380010BD6FF00F00FAE76FF04C00F7E76FF076
:103E48000100F4E72EF8FFFF2DE9F34789461546F0
:103E5800066906F56B73D3E8AF3F022B64D113688C
:103E680023B96FF0150002B0BDE8F0871B78002B6E
:103E7800F7D0D6F8A8A3BAF1000F36D106F5EC773B
:103E88004FF0FF324FF0FF33384612F0B5F83046A6
:103E98002A6801A9FFF7A2FE019C80461CB9384692
:103EA8001BF0C0FFDDE705F108032367AB6984F861
:103EB8006CA06367646460B138461BF0B3FF2146A9
:103EC8003046A36E2A68FFF767FE0020C9F8004055
:103ED800C9E71F22296804F1480021F05EF9384635
:103EE80084F867801BF09EFFEFE7304610491BF00F
:103EF80067FF04460028B4D0002705F108030367CC
:103F0800AB6980F86C70436740641F2229684830A9
:103F180021F043F922460121304684F8677000F009
:103F280061F80028D1D09CE76FF00F009BE700BF35
:103F3800587D020010B50C46006900F56B73D3E894
:103F4800AF3F022B0FD189B10A4900F5307012F04A
:103F580047FF20461FF029FD78220021204621F046
:103F6800F2F8002010BD6FF00F00FBE76FF00100C2
:103F7800F8E700BF442000202DE9F04F05460E4623
:103F880090460027D0F8C4A085B0AAF5BE74214693
:103F98003046FDF759F9E0B9114BA4F1480B0293EB
:103FA800DAF810303246CDE9008329464FF0FF3366
:103FB8005846AAF5E27910F0A7FF60B978230122E4
:103FC80003FB079383F86C20DAF80C300BB15846E2
:103FD8009847783417B105B0BDE8F08F0127D6E7C8
:103FE800DBFF01001FB5144690B18AB1012912D137
:103FF8000A4B00F1F0010293D0F8D4314832019312
:104008004FF0FF332046009310F07EFF04B010BD40
:104018006FF01500FAE70020F8E700BFDBFF0100AA
:104028002DE9F04387B00E46DDE90E811446DDE93F
:1040380010251F4630B329B3DFF850C000F1F0094E
:10404800002D08BF65469EB9CDE9034400F5E2742A
:10405800204605961FF061FE03ABCDE900432A46D2
:104068003B464146484611F0B1F907B0BDE8F08338
:10407800002241460E9248462A4607B0BDE8F04362
:1040880011F0F4BA6FF01500EFE700BF813F0000B0
:10409800F0B504462B4A87B004AB0E4692E80300FD
:1040A80083E80300002C49D0184610F007FE0546A7
:1040B800B0B94FF0FF33E16C04F15407A163CDE9C7
:1040C800010000933846236D04F138021FF01FF9F0
:1040D800A06C1BF0ADFFC4F8BC0020B96FF00B0555
:1040E800284607B0F0BDA06C1BF0A2FFC4F8C000C2
:1040F8000028F3D0236CD4F8BC10C4F89030042303
:10410800C4F89430C4F8AC300223E3620E4BB4F820
:104118004820C4F88C10616C236204F18C03C4F845
:10412800A070A4F89820C4F8B870C4F8A810A4F82F
:10413800B020C4F8A400A6612363D1E76FF0150589
:10414800CEE700BF445A02004C5B020030B50022A3
:1041580089B00F490F4820F001F8002200230024FD
:10416800CDE906230E230C4DCDE903344FF400624C
:104178002846CDE90144094B0949009413F08CFB0A
:104188000849284613F0BAFA204609B030BD00BFE6
:10419800F9420000A0160020E0110020354600007A
:1041A80000480020EF7002002DE9F047044607465A
:1041B8004FF00109DFF8508014B93846BDE8F087A0
:1041C80094FAA4F5B5FA85F509FA05F32E0108EB7A
:1041D80005156FEA030A24EA03042B7B002BEBD0B6
:1041E80058F806301B694BB94644736804222846C0
:1041F800196807EA0A071BF075FFDDE728469847A4
:104208000028D9D1F0E700BF485902002DE9F0474E
:10421800DFF8BC902F4C8046A9EB04038F2B0F4688
:104228000BD92D494FF4A7732C4A2D481BF021F9BF
:104238004FF4A77129481BF013F92A481BF044FFD3
:10424800064678B300252846BDE8F087237B83B16E
:104258002368DB680BB120469847636883F806A09B
:1042680023681B69B3B963680422204619681BF0E8
:1042780039FF013610344C4518D91B494FF4AD733A
:10428800164A17481BF0F5F818481BF0F2F84FF4D7
:10429800AD71CFE7204698470028E4D00AFA06F324
:1042A8001D43E6E705464FF0010AE4E7CED3B8F12F
:1042B800000FC8D0002DC5D02846FFF775FF05466A
:1042C800002FF7D000214FF4A47014F0ADF9F1E7F6
:1042D800585902004859020024710200F770020080
:1042E800C76A020080200020547102007571020024
:1042F800014812F097B900BF800B0020014B53F81A
:10430800200070478C5B020008B5034608462BB1B5
:10431800044A136000F03EFD002008BD6FF0150050
:10432800FBE700BF9006002010B5044C237813B9B2
:10433800034812F077F90123237010BD8C3C00204C
:10434800800B002010B5044609481BF0BDFE3CB1A7
:10435800084BD3E8EF1F0139C3E8E21F002AF8D160
:1043680005481FF007FFBDE81040044812F05AB98D
:10437800782000207C200020A0160020800B002040
:1043880000200146034BD3E8EF0FC3E8E21F002AE1
:10439800F9D170477820002070B5FFF7F1FF054686
:1043A8000F4C104EB44219D90F4940F20E230F4A50
:1043B8000F481BF05EF80F481BF05BF840F20E2127
:1043C8000A481BF04DF863685B792BB123685B687A
:1043D80013B12946204698471034E3E7F3D370BD5C
:1043E800485902005859020054710200F77002003F
:1043F800C76A02007571020010B5044C04492046D2
:10440800FEF7F0F9034B1C6010BD00BF080A00203E
:10441800785B02006C2000200023154A10B5137049
:10442800144A4FF400411360134A14481360FFF70D
:104438006BFFFFF7E1FF124B124918468B4215D963
:10444800114940F22913114A11481BF012F811487A
:104458001BF00FF840F229110C481BF001F81A1A4A
:104468005C681211013222711033E7E7F7D310BDEF
:104478008D3C0020782000207C200020CD00020008
:10448800485902005859020054710200F77002009E
:10449800C76A020075710200014600220023014824
:1044A800FEF7D2B9080A00200148FEF7E9BA00BFB2
:1044B800080A0020024B01461868FEF769BB00BFD6
:1044C8006C2000200148FEF7D5BB00BF080A002079
:1044D80070B52F4B1878002859D0FFF7E5FF05462F
:1044E800002844D12B4B2C4C1B68002B19DD1FF0E6
:1044F800EEFD4FF47A72A0FB020302FB0131C30BFD
:1045080043EA4143D4E900209B1A40F2E9324FEADA
:10451800D13161EB0001934271F1000101D3FFF742
:104528003BFFD4E9003213F57A7342F10002C4E983
:104538000032BDE87040FFF7C5BF63685B7923B1FF
:104548002368294620461B6898471034B44211D97D
:10455800124940F20223124A12481AF08AFF1248FE
:104568001AF087FF40F202210D481AF079FF0F4C2C
:104578000F4EEBE7E1D32846FFF79CFF0D4BD3E83E
:10458800EF1F0139C3E8E21F002AABD0F7E770BD7F
:104598008C3C0020782000209816002054710200DE
:1045A800F7700200C76A02007571020048590200DC
:1045B800585902007C20002070B5154D297829BB78
:1045C8000120FFF723FE134C134EB44217D91349A9
:1045D80040F2C713124A13481AF04BFF12481AF058
:1045E80048FF40F2C7110E481AF03AFF63685B793A
:1045F8001BB1236820469B6898471034E5E7F5D33C
:10460800FFF766FF0028FBD101232B7070BD00BFA8
:104618008D3C00204859020058590200547102008C
:10462800F7700200C76A0200757102002DE9F047B1
:10463800304B314FFB1A1B090BD1304940F2AB33D9
:104648002F4A30481AF015FF40F2AB312C481AF0C7
:1046580007FF00210846FFF7D9FD044650B340F292
:1046680067684FF0000920F013FE274B274A1B58B4
:10467800136033B1264B1B68092B02DD254811F066
:10468800D1FF0025DFF88CA044B12046FFF78CFD50
:10469800044618B94FF0FF384FF0FF39FFF718FFFD
:1046A800064628B95DB942464B46504612F03EF8D8
:1046B8003546E9E74FF0FF384FF0FF39D3E70D4DA6
:1046C80008E0F0D22B689B691BB1002228461146EE
:1046D80098471035BD42F4D90F4940F29F33084A34
:1046E80008481AF0C6FE0D481AF0C3FE40F29F3182
:1046F800ACE700BF48590200585902009471020003
:10470800F7700200C76A0200080000007420002049
:104718007C200020800B002054710200757102007B
:1047280013B52C481BF0D0FC2B4B1B78002B35D035
:10473800EFF31184202383F31288BFF36F8F274888
:1047480014F084FA68B98823254A264926481AF0BD
:1047580090FE224925481AF08CFE882120481AF03C
:104768007FFE1E4814F096FAFFF7B2FE1B4814F0BD
:104778007BFA68B940F23113194A1D491A481AF0F0
:1047880078FE16491B481AF074FE40F23111E5E72D
:1047980084F31188BFF36F8F02B010BD164B1B68EE
:1047A800002BF9D050B9002200231448CDE900238A
:1047B8004FF40042002314F0FFFDEDE70928EBD188
:1047C8000E481FF0D7FC0E4802B0BDE8104011F0AB
:1047D80029BF00BF7C2000208D3C002070200020D5
:1047E800D56D0200026E0200C76A0200176E020051
:1047F8002D6E0200446E020074200020A0160020D6
:10480800800B002010B5064B04461B6898472146CC
:10481800A0600448FEF7DCF8BDE81040FFF780BF51
:1048280090060020080A0020044A054B9B1AB1EBA9
:10483800D30F34BF52F831000020704718580200D7
:10484800485902002DE9F04F8FB0C1F34A2804AF50
:104858000D469146B8607B600C0DB8F1000F68D02A
:1048680000264FF0040B4FF00A0A07F11403C7F8AB
:104878000C80C7E907667E620193CDF808B0CDF8D1
:1048880000A007F11C0332464846F968FDF730FDE1
:10489800B0F5006F03461CD36C468AB0D9F80410F3
:1048A80004AB2C481A46C3E9050140F2FF71D961EF
:1048B8004FF400711984284B42F8103F4FF41251FD
:1048C80033462648FFF7BEFFA5462C37BD46BDE850
:1048D800F08FC0F30A0804F11700184420F007000D
:1048E80080083B60FFF7D8FD68F35325044640B3C2
:1048F8003B6800F11001C7E9083607F11403F961B4
:10490800CDE900A3CDF808B04846154AF96807F183
:104918001C03FDF7EDFC002813DA124912484FF486
:10492800A373124A1AF0A5FD4FF4A3710F481AF0A9
:1049380097FD04F1170020F007008008FFF7ACFD91
:10494800044668F353252A4620467B68B9681BF05D
:10495800E8FBBAE7BD71020004000001E858020054
:10496800FF00020028720200C76A0200FC71020000
:10497800406820B1034BC01A40F3CF0070474FF096
:10498800FF307047185802000EB403B503AB53F854
:10499800042B01460448019301F0F2FD02B05DF8D2
:1049A80004EB03B0704700BFD1490000CA0605D424
:1049B8008B064CBF02490349FFF7E6BF704700BFAB
:1049C800577D0200C9BD020038B54B6805461A6814
:1049D800CB680C469A4202D108461BF01FFC63685C
:1049E800D3E8EF2F511CC3E8E01F0028F8D1A368D3
:1049F8009D5463681A68E3689A4209D905490648CC
:104A08007223064A1AF035FD722104481AF028FD6F
:104A1800002038BD60720200C76A020031720200CD
:104A28002DE9F04F89B09B46149B9DF84CA0069346
:104A3800159B04460593169B0D469046179E0493B6
:104A4800BAF1000F00F0AD80BAF1040F0BD9A349F9
:104A580040F24623A24AA3481AF00BFD40F2462131
:104A68009F481AF0FDFC06F4807307931BF038FB8F
:104A780006F00209024600283FD020469A49FFF76F
:104A880083FF0746B9F1000F08D016F0440F36D15E
:104A98002A4620469549FFF777FF074406F00103A9
:104AA80053B1934B204653F82A20924B9249002A3F
:104AB80008BF1A46FFF768FF06F48073002B4AD038
:104AC80006F00803002B64D1B8F1000F67D0424606
:104AD80020468A49FFF758FF0546069B3D44002BB0
:104AE8006ED1049B002B40F08380F30700F1F08027
:104AF80031462046FFF75AFFE4E00746C2E7804BFD
:104B080018680028C9D07F4B4FF47A791B684FF09A
:104B18003C0CB5FBF3F5B5FBF0F14FF4616300FB1A
:104B2800115509FB05F5B1FBF3F2B5FBF0FE03FBEC
:104B3800121100FB1E55B1FBFCF309FB05F5B5FB93
:104B4800F0F50CFB131120460091CDE901E56E4903
:104B5800FFF71AFFA1E706F00803EBB16B4B2046FD
:104B680053F82A206A49FFF70FFF0546B8F1000FEE
:104B780005D0424620466149FFF706FF0544BBF1D0
:104B8800000FAAD05A4620466249FFF7FDFE0544A9
:104B9800A3E74FF0000BE1E706F00805E6E7454616
:104BA8009BE7BBF1010F069B06D1DBB9049B002BE9
:104BB80000F0888000251BE0002BF7D0564812E053
:104BC80056482246069B56491AF0E5FB00280CDA9F
:104BD80054494FF42873424A42481AF04AFC4FF4A9
:104BE80028713DE74D485546EBE7049B002B65D0FF
:104BF800DFF83481DFF83491049F3146102F2046C6
:104C080028BF10274FF0000BFFF7D0FE5D4542DCB0
:104C1800059B494620461A78FFF7B6FE4FF0010B70
:104C28001BF0070F03D141462046FFF7ADFE5F4555
:104C380038D9059B4946204613F80B20FFF7A4FEF8
:104C48000BF1010BBBF1100FEAD14FF0000B20461E
:104C58003749FFF799FE5A46059B20469A5CA2F110
:104C680020015F2928BF2E223249FFF78DFE0BF164
:104C7800010BBBF1100F1AD01BF0070F03D14146EF
:104C88002046FFF781FE5F455A46E5D84146204653
:104C9800FFF77AFEEBE741462046FFF775FE0BF17A
:104CA800010BB3E720462449FFF76EFEC8E7059BD2
:104CB8003B440593049BDB1B04939DD1BAF1000F81
:104CC8007FF413AF204609B0BDE8F04F1BF0A6BA39
:104CD8002046084A0849FFF757FE09E7957202007F
:104CE80031720200C76A0200A0720200A4720200B8
:104CF8009C5B020090720200F0850200C9720200FB
:104D08008820002084200020AD720200B05B0200E1
:104D1800CD720200D37202003F020200D1490000A6
:104D280089650000D872020095BD0200E172020098
:104D3800E7720200E972020093BD020042F20F73AB
:104D480073B58B4228BF0B460568044605216846A3
:104D58000D4A19F03BFE0646636828460B225B683D
:104D68000A491BF04DFA63683246694628465B6873
:104D78001BF046FA63681B2228465B6804491BF04F
:104D88003FFA02B070BD00BFAB67020008730200B3
:104D9800EC72020000210123064A904206D8064A16
:104DA80001B901231360054B1860704701214008C1
:104DB8005B00F2E740420F0084200020882000209A
:104DC8000122014B1A7070478E3C0020014B0020D5
:104DD80019607047A02000200148FFF7AFBF00BF4F
:104DE800E05B020010B5064B0C461868FFF786FA20
:104DF8002146BDE8104003460F220248184700BF6D
:104E0800A0200020E05B02000122F8B5084B094D04
:104E1800094E1A70D5E900470CB92C60F8BD214637
:104E280030463A4600F01EF8241A0644F4E700BF5C
:104E38008F3C002094200020903C002010B9074BA4
:104E480018707047064B1B781BB141F288301EF072
:104E5800AFBFA420002113F0E7BB00BF8E3C0020A9
:104E68008F3C00202DE9F04780460E460424DFF8E9
:104E780074901D4F99F80050A5B91EF08CFF32466A
:104E880082464146284610F037FC054650461EF03B
:104E98008AFFE5B101233B7099F8003073B93046B9
:104EA800BDE8F08732464146002010F025FC054653
:104EB800EFE72046651EFFF7C1FF2C46002010F0E3
:104EC8005FFC0028EBD03B78002BF2D1E7E73B787A
:104ED800002BE4D0013C2046FFF7B0FF3B78002BC5
:104EE800C8D1DCE78F3C00208E3C0020014B0360DA
:104EF80000207047F05B020070B5104B0D461C682F
:104F0800B4B10F4B196800238B4202DB6FF001002C
:104F180070BD224612F8106B864202D01446013347
:104F2800F2E7E0681EF048FF28B100202C60EFE7A8
:104F38006FF00C00ECE76FF01200E9E710070020B3
:104F4800945C020010B5436888B0029383680C46ED
:104F5800CDE9033200230A68C068CDE90623054974
:104F680001AA05931DF002FC079808B9059B236068
:104F780008B010BDC70202002DE9F0410C4B0546F0
:104F88001C680E4617467CB100F09AF96368204603
:104F9800D3F8108032463B462946C047044600F005
:104FA80099F92046BDE8F0816FF00104F9E700BFE8
:104FB800A420002000230360044B5A6812B9C3E9F7
:104FC8000000704710605860704700BFA82000209C
:104FD800014B1860704700BFA4200020002330B5A3
:104FE80085B0CDE902330546019000F069F9094B17
:104FF8001C6844B9284600F0EBF8044600F06AF94A
:10500800204605B030BD636820461B6801A9984753
:105018002468EEE7A82000201FB5CDE9010103921E
:1050280000F04EF9074B1C6824B900F053F92046EC
:1050380004B010BD636820461B6801A9984724681E
:10504800F2E700BFA82000200022024BC3E900229B
:10505800704700BFA82000200022024BC3E90022AD
:10506800FFF7F2BFB02000202DE9F74307460C46B2
:1050780009B100230B600026254DDFF898904D45B7
:1050880024D925499D23254A25481AF0F2F92548AF
:105098001AF0EFF99D2121481AF0E2F9D5F80080BD
:1050A8003846414601AA1BF04CF950B116B954B91B
:1050B8002E4606E00022404631681BF042F90028DF
:1050C800F5D11835DBE7019B2360F1E7E6D3164BF2
:1050D8001D68C5B155F8188C3846414601AA183DD7
:1050E8001BF02FF950B116B954B92E4606E000222C
:1050F800404631681BF025F90028F5D1AD69E8E78D
:10510800019B2360F1E7304603B0BDE8F08300BFA0
:105118009C5902002C5A0200767302004473020064
:10512800C76A020075710200B02000202DE9F0471F
:1051380084B002AFD7F8289004460D461646984624
:105148007860B9F1000F07D0D9F8001031BBD9F851
:1051580004A0BAF1000F28D12046391DFFF784FFBB
:1051680008B3D0F80C904346324629467868C847B9
:10517800C8B16D468AB002AA124BD061C2E90534A3
:105188004FF400731384104B42F8103F00234FF480
:1051980011510E48FFF756FBAD4604E03A1D1BF0CF
:1051A800D0F80028D3D1002007E0D9F808303246DB
:1051B8000093294643467868D0470837BD46BDE87E
:1051C800F08700BF9E7302000400000130590200FE
:1051D8002DE9F04780464FF000470026DFF8C490DD
:1051E800DFF8C4A03D46314C4C4530D930494FF426
:1051F8008973304A30481AF03CF930481AF039F9C6
:105208004FF489712B481AF02BF92F46EAE7B8F1C9
:10521800000F03D122694AB91834E5E70022414654
:1052280020681BF08EF80028F4D1F5E76368BB42CC
:1052380005DDAF4209D09D42A8BF1D46ECE7EBD182
:105248009047002E08BF0646E6E71D46E4E7DED392
:10525800DAF8004004B3183CB8F1000F03D1226912
:105268004AB9A469F6E70022414620681BF069F8AC
:105278000028F4D1F5E76368BB4205DDBD4209D0DB
:105288009D42A8BF1D46ECE7EBD19047002E08BF12
:105298000646E6E71D46E4E7AF42B6D13046BDE82C
:1052A800F08700BF2C5A0200B02000209C59020051
:1052B8007673020044730200C76A02007571020027
:1052C8004FF0FF324FF0FF33014810F095BE00BF9A
:1052D800400B0020014810F05FBF00BF400B0020CA
:1052E80038B5094DFFF7ECFF2B783BB9FFF7B4FE53
:1052F80000F06AF8044610B901232B700024FFF768
:10530800E9FF204638BD00BFA03C00202DE9F0474A
:1053180006468946048FDFF8ACA0013498B0A4B2E1
:1053280000F10807651EADB2B5F5004F47D04A2316
:10533800294605AA38461AF0BEFC04F57F543F34C6
:10534800A4B280462146012338460DF10B021AF01B
:10535800B2FCB8F1000F014610DC002810DC338FD6
:10536800AB4209D132466B1E22F8383F4FF4004158
:1053780002233846FEF70CFA2C46D3E7002808DC4F
:10538800294638461AF093FC214638461AF08FFC15
:10539800E5E708F160030DEB03080023524608F81F
:1053A8004C3C05A8CDF8009003AB0397ADF810402E
:1053B800FFF7BCFE0028DFD018B0BDE8F08700205A
:1053C800FAE700BFBB0302007FB5012569462846FE
:1053D8000195FFF791FD044660BB284602AA01A982
:1053E8001AF08FFF044610B110F10C0F22D1039967
:1053F800B1F5803F23D200231846009A94680844E8
:1054080084421AD30133082BF9D10E4DA982EB82BD
:1054180053682846AB60D368EB631BF062F8044618
:1054280040B9094E28466E60FFF7C4FD28466E60F5
:10543800FFF7CEFD204604B070BD9BB2E5E76FF0E4
:105448002004F7E7B82000209406002008B5054896
:1054580019F0F9FF044819F0F6FFBDE808400348C1
:1054680019F0F1BFC3730200F77302002A74020037
:10547800034B9B681BB1481E18BF01201847704793
:10548800F820002010B51C46034B11461B680BB1D1
:1054980022469847204610BDF8200020024B5B6842
:1054A80003B11847704700BFF820002030B1044B03
:1054B80002681A6042685A6082689A6000207047E1
:1054C800F820002070B50E461546044686B0002127
:1054D800182268461FF037FE0B490C4BCDE9011620
:1054E800ADF80C5004932CB96946204609F02AF807
:1054F80006B070BD0122204608F0E8FC0028F3D170
:105508006FF01500F4E700BF185C0200A554000016
:10551800014816F035BD00BF685C020038B5044686
:1055280018B90F4B0F485B6898476168B1F5683F39
:1055380010D0B1F5680F0DD00B4DA9420AD011F467
:105548006861206807D00146084810F075FC002300
:105558002360656038BD14221FF0F5FDF9E700BF30
:105568007C090020B47402002C5F5CA9042600208A
:1055780008B560B34368B3F5683F0ED0B3F5680F5C
:1055880018D0144A934220D000684FF0FF324FF0F1
:10559800FF3310F031FD58B115E001220368D3E85C
:1055A800EF1F002903D1C3E8E02F0028F7D10AD163
:1055B800002008BD0368084A1B7803F5807352F879
:1055C8002330002BF4D00548F3E70548F1E76FF4E2
:1055D800E040EEE72C5F5CA900000350E98FFFFF75
:1055E800EA8FFFFF08B520B34368B3F5683F09D0D9
:1055F800B3F5680F13D0114A93421DD0006810F01C
:10560800CBFD14E000220368D3E8EF1F012903D182
:10561800C3E8E02F0028F7D109D0094808BD0021C8
:105628000368084A1B7803F5807342F823100020AA
:10563800F4E76FF4E040F1E70348EFE72C5F5CA97B
:10564800E98FFFFF00000350EA8FFFFF10B5044603
:1056580018B91D4B1D485B6898476368B3F5683FE8
:105668002FD0B3F5680F2CD0194A934219D123686B
:1056780003BB4FF0FF324FF0FF332146154810F0BF
:105688004FFB08B923681BB90F4B13485B68984751
:105698001422002120681FF056FD4FF468636360F0
:1056A80008E0B3F5683F0DD83A2B03D040F6BA624C
:1056B8009342DED120681EF0E8FB636843F03A03AA
:1056C800636010BD054AF3E77C090020B47402004A
:1056D8002C5F5CA904260020DA7402003A00003A24
:1056E80008B506494023142205481EF0B7FBBDE85B
:1056F80008400449044816F007BD00BF04210020F3
:1057080004260020705C0200845C02002DE9F0474A
:1057180006460C4600AF002936D0D1E90012E9460A
:105728008AB06D46A3684FF0050AA8461F48C5E928
:105738000723C5E9050148F810AF002342464FF496
:1057480021511B48FFF77EF8D4E90312CD4663695F
:10575800AD461848C5E90723C5E90501C5F810A0F5
:10576800002342464FF421511148FFF76BF8CD460C
:10577800E3690121104A0E481AF02CFDA3690121A2
:105788000E4A0B481AF026FD012E07D1EFF30583C8
:105798000B4A31460648103B1AF01CFD214630469C
:1057A80010F040F8BD46BDE8F08700BF077502005D
:1057B80018590200367502006575020074750200FA
:1057C800A275020030BFFFF7FDBF00BF2DE9F04111
:1057D80005460B4EDFF82C80324606EB0807CC1B3B
:1057E800204609491FF088FCA01942460021083CC0
:1057F8001FF0A9FCC5F8A84007F10800BDE8F08132
:1058080000000000080000002C5A0200054B5A69ED
:105818009B689A421FBF044A536843F08053536001
:10582800704700BFA02B002000ED00E070B5344C9D
:1058380006460D46334834491AF094FEA36AD90641
:105848004DD5304831491AF08DFE1120A36A1A0748
:1058580004D52C482E491AF085FE1220284CA36A3C
:105868009B0712D52B4927481AF07CFE636BA26A66
:10587800110609D50121284A22481AF0ABFC1EB1AD
:10588800A36A23F08003A36213201D4CA36ADA07DE
:1058980004D51C4821491AF065FE1420A36A9B060A
:1058A80004D518481E491AF05DFE1520144B9A6A53
:1058B800D60602D49A6A940713D59B6AD90610D5DE
:1058C80018494FF49573184A184819F0D2FD18482A
:1058D80019F0CFFD4FF49571134819F0C1FD102050
:1058E800B4E7074B9A6A920642BF5A6A22F40052FA
:1058F8005A629A6A42F0FF029A6200232B7070BDC6
:1059080000ED00E018590200B5750200CB750200E1
:10591800FE75020011760200297602003F76020029
:105928005E760200BF7602008D760200C76A02002A
:105938000977020010B5244C244925481AF012FEB4
:10594800A36A99013ED5224822491AF00BFE1E206F
:10595800A36ADA0104D51E481F491AF003FE1F2066
:10596800194CA36ADB0204D519481C491AF0FAFD40
:105978000220A36A1C0304D5154819491AF0F2FD40
:105988002120114CA36A590304D5114815491AF06E
:10599800E9FD2220A36A9A0304D50D4812491AF09A
:1059A800E1FD2320084CA36ADB0304D508480F490E
:1059B8001AF0D8FD2420A36A6FEA03436FEA134361
:1059C800A36210BD1D20C3E700ED00E06D77020063
:1059D800185902008577020098770200B277020012
:1059E800DC770200FA7702001F780200397802009B
:1059F80070B5294C06460D46284829491AF0B2FDCB
:105A0800A36AD9043CD5254826491AF0ABFD1720CE
:105A1800A36A1A0504D5214823491AF0A3FD1820C2
:105A28001D4CA36A9B0512D51C4820491AF09AFD03
:105A3800A36BA26A100409D501211D4A17481AF060
:105A4800C9FB1EB1A36A23F40043A3621920124CB8
:105A5800A36A590504D5114816491AF083FD1A207E
:105A6800A36ADA050ED50D4813491AF07BFD1B20F1
:105A7800094A936A43F47F43936200232B7070BDF5
:105A88001620C5E7A36A9B04F2D504480B491AF00F
:105A980069FD1C20ECE700BF00ED00E0185902008A
:105AA800647802007A780200FE7502008B780200A2
:105AB800A4780200B9780200D47802005E76020069
:105AC800F0B58BB0784B04465868002600AFC0F399
:105AD800080386F31188BFF36F8F02F07F45B5F195
